:0400000000001200EA
:0410000018EF08F0ED
:08100800EA6A060EE96EEF50E2
:101010000EE00F0E016E006A002EFED7012EFBD7E8
:101020008F0E006E002EFED70000EF2EF2D71200BA
:10103000F86AD09EB886E10EAF6E040EB06EA60EB2
:10104000AC6E900EAB6EC150C00B0F09C16E070E97
:10105000B46E000E926E936E936A8A6A939E8A8E25
:10106000140E056EFA0E066ECFDF052EFBD7939E8B
:0C1070008A9EFA0E066EC8DFF1D703005E
:020000040030CA
:0E00000024CE3E1E0087A1000FC00FE00F406F
:00000001FF
;PIC18F4550
;CRC=5539  CREATED="26-Jan-19 14:23"
